:020000040800F2
:1000000038DD002061020008D9B7000857970008C2
:1000100069B60008F11E0008B9E100080000000000
:10002000000000000000000000000000A101000826
:10003000333F000800000000FD010008D5D700088C
:100040007B0200087B0200087B0200087B0200089C
:100050007B0200087B0200087B0200087B0200088C
:100060007B02000889400008934000087B020008DA
:10007000F93D00087B0200087B0200087B020008B3
:100080007B0200087B0200087B020008C5200008F4
:10009000111F00087B0200087B0200089D40000839
:1000A0007B0200087B0200087B0200087B0200083C
:1000B0007B0200087B0200087B0200087B0200082C
:1000C0007B0200087B0200087B0200087B0200081C
:1000D0007B02000851E100087B02000865E100088E
:1000E0007B0200087B0200087B0200087B020008FC
:1000F0007B0200087B0200087B0200087B020008EC
:100100007B0200087B0200087B0200087B020008DB
:100110007B0200087B020008D1D800087B0200089F
:100120007B020008093E00087B0200087B020008F1
:100130007B0200087B0200087B020008C522000841
:10014000292100087B0200087B0200087B020008CE
:10015000193E0008293E0008393E000879E10008F0
:100160007B0200087B0200087B0200087B0200087B
:100170007B0200087B0200087B02000800000000F0
:100180007B0200087B020008DFF810D000F0C8FCFA
:100190000048004783FD0008AFF3008038DD0020F1
:1001A0002C4B19680868B0E8F04F80F30988BFF35A
:1001B0006F8F4FF0000080F311887047000000003F
:1001C00008480068006880F308884FF0000080F35A
:1001D000148862B661B6BFF34F8FBFF36F8F00DF35
:1001E00000BF00BF08ED00E0DFF80C00016841F43B
:1001F00070010160704700BF88ED00E0EFF30980F7
:10020000BFF36F8F134B1A681EF0100F08BF20ED5D
:10021000108A20E9F04F106009B44FF0500080F3CD
:100220001188BFF34F8FBFF36F8F10F0B1FE4FF007
:10023000000080F3118809BC19680868B0E8F04F25
:100240001EF0100F08BFB0EC108A80F30988BFF3CE
:100250006F8F704710050020EFF305807047000096
:100260000648804706480047FEE7FEE7FEE7FEE750
:10027000FEE7FEE7FEE7FEE7FEE7FEE7B5D800088B
:10028000890100089FED1A1AF5EE000A40EE010AF6
:10029000BDEEE00AF5EEC00A10EE100AF1EE10FA1B
:1002A00038BF401E00EE100A1349F7EE001AB8EEF0
:1002B000C00A30EEC00ADFED0F0A20EE200AFCEE85
:1002C000C00A10EE900AC0F3080000EE900A01EB9D
:1002D0008000F8EE600A90ED011A70EE600A90ED71
:1002E000000A71EEE01A21EE800A00EE810A7047E2
:1002F00083F9223E0000004478180108DFED190A56
:10030000B5EEC00A60EE200ABDEEE01A11EE100A4A
:10031000F1EE10FA38BF401E00EE100A1349F7EE56
:10032000001AB8EEC00A30EEC00ADFED0F0A60EE28
:10033000200ABCEEE00A10EE100AC0F3080000EE3E
:10034000100A01EB8000B8EE400A90ED011A70EE41
:10035000C00A90ED000A71EEE01A21EE800A00EE6C
:10036000810A704783F9223E000000447818010892
:1003700001804280436070472DE9F04F0288476852
:10038000B0F802804888D1F8049082B04FF0000A9B
:100390001646824207BF098888456FF0020002B006
:1003A00018BFBDE8F08F4FEA980B02EB42000190B6
:1003B000C8F34000CDF8000009EB8A01BBF1000F43
:1003C00033D0019801EB820C01EB80043B46E646FA
:1003D00001EBC2054FEA0B0093ED000A401E81EDD0
:1003E000000A93ED010A01EB02118CED000A93ED76
:1003F000020A0CEB021C85ED000A93ED030A05EBE3
:10040000021584ED000A04EB021403F11003E3D19A
:100410000EEB820000EB820000EB8201ABF10100E9
:10042000504307EB0B1701EB001118F0030C21D020
:100430003B1FA1EB82011CF0010F06D093ED010AD6
:1004400001EB82011B1D81ED000A009880B100BF05
:1004500093ED010A01EB820401EBC20184ED000A75
:1004600093ED020A401E81ED000A03F10803EFD16B
:1004700007EB8C070AF101001FFA80FA701E0604D0
:10048000360C99D102B00020BDE8F08F2DE9F05F65
:100490000546002092469B468846064681464024F3
:1004A0001BE0284641464746224600F082FA534662
:1004B0005A46C01A914110D311461846224600F000
:1004C00069FA2D1A67EB01084F46224601200021E8
:1004D00000F060FA17EB00094E41201EA4F1010460
:1004E000DFDC484631462A464346BDE8F09F40EAF5
:1004F00001039B0703D009E008C9121F08C0042AA2
:10050000FAD203E011F8013B00F8013B521EF9D288
:100510007047D2B201E000F8012B491EFBD27047B0
:100520000022F6E710B513460A4604461946FFF7BF
:10053000F0FF204610BD421C10F8011B0029FBD122
:10054000801A7047034611F8012B00F8012B002A8E
:10055000F9D1184670472DE9FE4F804681EA030025
:10056000C00F0C46009021F0004123F00045B8EB8D
:100570000200A94105D24046214690461C460B4642
:10058000024623F00040104347D0270DC7F30A006E
:10059000C3F30A510290401A019040286BDAC3F36A
:1005A000130040F4801B0098924620B10023D2EB48
:1005B000030A63EB0B0B01985946C0F14002504609
:1005C00000F0E8F906460D4650465946019A00F0FB
:1005D00000FA10EB08006141002487EA115284EA16
:1005E000E7731A4340D0009A62B3019A012A4FEA96
:1005F000075215DC001B61EB02014FF0004202EADA
:100600000752CDE90042001C41F5801132462B46CD
:1006100000F037FA03B0BDE8F08F40462146F9E715
:10062000001B61EB0201001C41F5801300185B41C7
:100630002018A2F5001747EB030140EAD570B61960
:100640006D4111E06D084FEA360645EAC0754FEA84
:100650000752001B61EB0201001C41F580114908A3
:100660004FEA30000019514132462B4603B0BDE835
:10067000F04F00F0F7B90098012240000023D0EBC2
:10068000020263EBE073009821464FEAE074B8EB96
:10069000000061EB0401E9E783F000435BE781F0D0
:1006A000004158E72DE9FE4F81EA030404F00044BD
:1006B00021F0004100944FF0000B23F0004350EA7A
:1006C00001045ED052EA03045BD0C3F30A54C1F3C1
:1006D0000A552C44A4F2F3340194A0FB0254C1F354
:1006E000130141F48011C3F3130343F4801301FB9E
:1006F000024400FB034E840A970A44EA815447EA05
:100700008357A4FB076802958D0A05FB07854FEA0E
:10071000932C04FB0C542705029D4FEA065847EA28
:100720001637B5EB08056EEB070C870E920E47EAFD
:10073000811742EA8312A7FB0201B6EB0B0164EBBF
:1007400000042B0D43EA0C335E1844EB1C50DA46D0
:100750005146E7FB0201C5F313044FEA0B3343EAAA
:1007600014534FEA0432019C43EA0603A4F10C043B
:100770000294009CCDE900B400F083F903B0BDE819
:10078000F08F00200146F9E72DE9F04D81EA0304DE
:1007900004F0004B21F0004514464FF0000A23F00E
:1007A000004150EA050220D054EA01021DD0C5F3F1
:1007B0000A570246C5F31303C1F31300C1F30A56E7
:1007C00040F4801543F48013A7EB0608101BD646AF
:1007D00008F2FD3873EB050002D308F1010801E0CF
:1007E00092185B41B8F1000F03DA00200146BDE822
:1007F000F08D00204FF48011064684460EE0171B52
:1008000073EB050705D3121B63EB050306434CEAA4
:10081000010C49084FEA300092185B4150EA010789
:10082000EDD152EA030012D082EA040083EA050106
:10083000084305D0101BAB4106D20122002306E07D
:1008400000224FF0004302E06FF0010253101AEB58
:1008500006004CEB085110EB0A0041EB0B01BDE820
:10086000F04D00F0FFB80EB5C10F80EAE07008440B
:10087000CA07002140F233438DE80E000A460B46BA
:1008800000F0FFF803B000BD0EB540F23341029115
:100890000021CDE900110A460B4600F0F2F803B042
:1008A00000BDC1F30A5210B5C1F3130140F2FF338A
:1008B00041F480119A4201DA002010BD40F2334326
:1008C0009A42A2F2334203DC524200F072F810BDA9
:1008D000904010BD00F0004230F000400AD0C10D41
:1008E00001F56071C0F3160042EA0151C2084007E9
:1008F00011437047002001467047000030B5041EC8
:1009000071F1000404DB4FF00044404264EB01014C
:10091000141E73F1000405DB1C464FF000435242E5
:1009200063EB04038B4208BF824230BD30B5041E26
:1009300071F1000404DB4FF00044404264EB01011C
:10094000141E73F1000405DB1C464FF000435242B5
:1009500063EB0403994208BF904230BD01F00043AD
:1009600030B421F0004150EA010206D00A0DA2F590
:100970006072C1F31301002A02DC30BC0020704712
:10098000440F44EAC104C100E01830BC00EBC2507F
:1009900000F031B8202A04DB203A00FA02F10020EE
:1009A00070479140C2F1200320FA03F319439040AD
:1009B0007047202A04DB203A21FA02F00021704718
:1009C00021FA02F3D040C2F12002914008431946B7
:1009D0007047202A06DBCB17203A41FA02F043EA9F
:1009E000E07306E041FA02F3D040C2F120029140E8
:1009F0000843194670470029A8BF7047401C4900AA
:100A000008BF20F00100704710B4B0FA80FC00FA73
:100A10000CF050EA010404BF10BC704749B1CCF19E
:100A2000200421FA04F411FA0CF118BF012121432A
:100A30000843A3EB0C01CB1D4FEA00614FEA1020E5
:100A400042BF002010BC704700EBC3501044002987
:100A5000A4BF10BC7047401C490008BF20F0010033
:100A600010BC704710B5141E73F1000408DA401C66
:100A700041F1000192185B411A4301D120F00100BD
:100A800010BD2DE9F04D92469B4611B1B1FA81F2AD
:100A900002E0B0FA80F220329046FFF77BFF044676
:100AA0000F4640EA0A0041EA0B0153465A46084302
:100AB00013D0114653EA010019D0C8F14002504644
:100AC000FFF777FF05460E46504659464246FFF768
:100AD00061FF084305D0012004E020463946BDE807
:100AE000F08D0020054346EAE0762C4337430A9810
:100AF0006305E40AA0EB08000022FD0A44EA47541B
:100B00000A3002D500200146E9E7010510196941C4
:100B1000DDE9084500196941BDE8F04DA2E7000094
:100B2000064C074D06E0E06840F0010394E807003A
:100B300098471034AC42F6D3FFF72AFB182101087E
:100B40003821010870B58C1810F8015B15F0070307
:100B500001D110F8013B2A1106D110F8012B03E056
:100B600010F8016B01F8016B5B1EF9D12B0705D45E
:100B70000023521E0DD401F8013BFAE710F8013BA7
:100B8000CB1A921C03E013F8015B01F8015B521EC3
:100B9000F9D5A142D8D3002070BD10B52DED028B40
:100BA000B0EE408AB0EE480A0DF08AFDBDEC028B33
:100BB00010BD10B52DED028BB0EE408AF0EE608ACC
:100BC000F0EE680AB0EE480A0DF010FEBDEC028BA4
:100BD00010BD10B52DED028BB0EE408AB0EE480A84
:100BE000FFF750FBBDEC028B10BDF0EE400AF5EEB6
:100BF000C00AF1EE10FA02DDB0EE600A7047B1EE05
:100C0000600AFBE718B19FED020A80ED000A704709
:100C10000000000018B1B3EE060A80ED000A70472C
:100C200070B52DED0C8B84B006460C4615469FED35
:100C3000990AF0EE408A9FED970AB0EE409A9FED38
:100C4000950AF0EE40BA9FED930AF0EE409A9FEDC0
:100C5000910AB0EE40AA0EB104B11DB904B0BDECCA
:100C60000C8B70BD8C48FFF7CDFF8C48FFF7D2FF8F
:100C70008A48D0ED000A9FED8A1A60EE810AB0EE34
:100C8000600A00F02DF9F0EE408A28EEA80AF0EE96
:100C9000408A8248D0ED000AB0EE001A60EE810A68
:100CA0009FED7F1A60EE810AB0EE600A00F018F93D
:100CB000B0EE409A29EE090AB0EE409ADFED790ACB
:100CC000B7EE000A00EEA80ADFED770A00EEC90AC7
:100CD000DFED760A20EE200A754880ED000A6E48A6
:100CE00090ED000ADFED730A80EE201AB7EE000ADD
:100CF00031EE000A20EE000A6D48D0ED000A80EEC9
:100D0000801A6D4880ED001A94ED000AB5EEC00A15
:100D1000F1EE10FA0DD194ED010AB5EEC00AF1EE34
:100D200010FA06D194ED020AB5EEC00AF1EE10FAFF
:100D300046D09FED580AB0EE408A00200190029004
:100D40000390D4ED000A60EEA00A94ED011AD4EDF0
:100D5000011A41EE210A94ED021AD4ED021A41EE75
:100D6000210AB0EE600A00F0A9F8B0EE408A94EDD6
:100D7000000A20EE080A8DED010A94ED010A20EE2A
:100D8000080A8DED020A94ED020A20EE080A8DEDA4
:100D9000030ADDED010AF1EE600AB0EE600AFFF72A
:100DA000FCFEF0EE409A9DED031AF0EE410A9DED37
:100DB000021AB0EE410AFFF7FCFEB0EE40AA07E0CF
:100DC0009FED340AF0EE409A9FED320AB0EE40AA51
:100DD00095ED000AB5EEC00AF1EE10FA0DD195EDD1
:100DE000010AB5EEC00AF1EE10FA06D195ED020A3D
:100DF000B5EEC00AF1EE10FA3CD0B0EE690A00F090
:100E00006FF8B0EE408AB0EE690AFFF7E2FEB0EE8E
:100E100040DAB0EE4A0A00F063F8F0EE40AAB0EE15
:100E20004A0AFFF7D6FEB0EE40BA28EE2A0AD5ED00
:100E3000010A20EE200AD5ED000A0DEE200A68EE28
:100E40000B0A95ED021A00EE810AB0EE40CA95ED4C
:100E5000010A20EE0B0AD5ED020A0AEEE00AF0EED6
:100E600040CAF0EE6C0AB0EE4C0AFFF7A2FEF0EEBC
:100E700040BA03E09FED070AF0EE40BAB0EE4A1A1E
:100E8000F0EE690AB0EE6B0A30460EF059F800BF7A
:100E9000E4E60000000000004C070020500700209E
:100EA00035FA8E3CC1BFAD3B9DF8C5362F7C1C4149
:100EB00054070020506CC24A5807002010B52DED91
:100EC000028BB0EE408AB0EE480A0DF0EFFDB7EEAF
:100ED000001AC1EE000AB0EE600ABDEC028B10BD34
:100EE00010B52DED028BB0EE408AB0EE480AFFF748
:100EF00005FABDEC028B10BD2DE9F0412DED028B02
:100F00009AB00546B0EE408A0E4617469846002035
:100F10001790189019901490159016904DB146B1F5
:100F20003FB1B8F1000F04D0B5EEC08AF1EE10FA6F
:100F300005D100201AB0BDEC028BBDE8F08196ED22
:100F4000000A8DED170A96ED010A8DED180A96ED4F
:100F5000020A8DED190A97ED000A8DED140A97ED3E
:100F6000010A8DED150A97ED020A8DED160A17AAF2
:100F700014A928460DF036FE402104A8FFF7D0FA48
:100F800000200090019002900390002417A904A86B
:100F90000FF0FBFD00BF30E004A800EB041090ED63
:100FA000000AD5ED000A20EE200A04A800EB041088
:100FB000D0ED010A95ED011A00EE810A04A800EBBC
:100FC0000410D0ED020A95ED021A00EE810A04A881
:100FD00000EB0410D0ED030A95ED031A00EE810A30
:100FE00020EE080AF0EE000A80EE201A684600EBB8
:100FF000840080ED001A601CC4B2042CCCDB0024F9
:1010000010E005EB840090ED000A684600EB8400D8
:10101000D0ED000A30EE200A05EB840080ED000AD6
:10102000601CC4B2042CECDB28460FF0A3FC0120AA
:1010300080E700004C4991F82010002969D04A4906
:1010400091ED010AB5EEC00AF1EE10FA02DD91ED64
:10105000010A04E0444991ED010AB1EE400AD0EDE5
:10106000040AB4EEE00AF1EE10FA3ED23E4991F8DD
:10107000211061B9016A51B9C16881610121016220
:10108000002141609FED390A80ED0A0A4BE03649A4
:1010900091F82110002946D1016A29B38269C168FB
:1010A000891A81604269816891423CD900210162BC
:1010B00041622D4991ED010AB5EEC00AF1EE10FA38
:1010C00002DD91ED010A04E0274991ED010AB1EE3C
:1010D000400AF6EE000AB4EEE00AF1EE10FA22D26F
:1010E0000121214A82F821101DE000211E4A82F8C8
:1010F00021109FED1F0A80ED0A0A416A21B9C168DB
:10110000C161012141620EE0C269C168891A416072
:1011100009E00021144A82F82110416081609FEDAE
:10112000150A80ED0B0A00BF0F4991ED010AFAEE96
:101130000E0AB4EEE00AF1EE10FA04D8BAEE0E0A86
:1011400081ED010A0DE0084991ED010AF2EE0E0A67
:10115000B4EEE00AF1EE10FA03DBB2EE0E0A81ED16
:10116000010A00BF70470000746200205839343C07
:10117000F4FD543C000000004C4991F82010002977
:1011800069D04A4991ED010AB5EEC00AF1EE10FAB4
:1011900002DD91ED010A04E0444991ED010AB1EE4E
:1011A000400AD0ED040AB4EEE00AF1EE10FA3ED2A5
:1011B0003E4991F8211061B9016A51B9C168816154
:1011C00001210162002141609FED390A80ED0A0A88
:1011D0004BE0364991F82110002946D1016A29B324
:1011E0008269C168891A81604269816891423CD9EB
:1011F0000021016241622D4991ED010AB5EEC00A5C
:10120000F1EE10FA02DD91ED010A04E0274991EDBB
:10121000010AB1EE400AF6EE000AB4EEE00AF1EE81
:1012200010FA22D20121214A82F821101DE000216A
:101230001E4A82F821109FED1F0A80ED0A0A416ABA
:1012400021B9C168C161012141620EE0C269C16872
:10125000891A416009E00021144A82F82110416096
:1012600081609FED150A80ED0B0A00BF0F4991EDDB
:10127000010AFAEE0E0AB4EEE00AF1EE10FA04D812
:10128000BAEE0E0A81ED010A0DE0084991ED010A5E
:10129000F2EE0E0AB4EEE00AF1EE10FA03DBB2EE63
:1012A0000E0A81ED010A00BF704700009CD60020A5
:1012B0005839343CF4FD543C00000000002101602A
:1012C00041608160C160B7EE080A80ED040A4FF406
:1012D0002F7141610021C1618161016241629FED15
:1012E000050A80ED1B0A9FED040A80ED1C0A01210E
:1012F0004167704700C05A458FC2F53B002101602D
:1013000041608160C160B7EE080A80ED040A4FF4C5
:101310002F7141610021C1618161016241629FEDD4
:10132000050A80ED1B0A9FED040A80ED1C0A0121CD
:101330004167704700C05A458FC2F53BF0EE401A36
:101340009FED310AB0EE401A9FED2F0AB0EE402A11
:101350009FED2D0AF0EE402A00BFBDEEE10AB8EE87
:10136000C00A31EEC00AF0EE402ABDEEE10A10EEEE
:10137000100A4FF4B47190FBF1F201FB120000EE81
:10138000100AB8EEC00A30EE220AF0EE402A00BF82
:1013900000BFBDEEE00AB8EEC00A30EEC00AB0EE03
:1013A000402ABDEEE00A10EE100A90FBF1F201FBBC
:1013B000120000EE100AB8EEC00A30EE020AB0EEDB
:1013C000402A00BF32EEC20AB0EE401A9FED0F0A6B
:1013D000B4EEC01AF1EE10FA06DD9FED0D0A31EE03
:1013E000400AB0EE401A0CE09FED0A0AB4EEC01AB3
:1013F000F1EE10FA05D29FED060A31EE000AB0EECA
:10140000401A30EE810A70470000000000003443AB
:101410000000B443000034C310B500F00BFB2448B7
:1014200000F0E4FA18B102202249087002E001201D
:10143000204908701F480078022803D14FF47A70C1
:1014400005F066FE1B480078032803D140F6B8304B
:1014500005F05EFE0CF03EF808F0BAFD02F014FC58
:1014600002F03AFA02F0CCFD12480078022808D1C6
:1014700002F074FE0BF078FB04F048FD0CF040F82D
:1014800014E00C480078012804D100F09DFF01F021
:1014900027FC0BE007480078032807D103F07CFB0A
:1014A0000BF052F904F0B0F80CF02AF810BD00006F
:1014B000703F00202801002010B5012210210248B1
:1014C00005F07FFF10BD00000000024010B50022B3
:1014D0001021024805F075FF10BD00000000024019
:1014E0007047000010B501221146024805F069FF5F
:1014F00010BD00000004024010B500220121024886
:1015000005F05FFF10BD000000040240704710B5F9
:10151000044620460EF061FC10BD10B5044620467E
:1015200000F024FA10BD10B50024FFF7D9FFFFF733
:10153000EDFF0DF07FFE10B144F0800402E00DF0ED
:10154000DFFD04430EF06EF810B144F0400402E0F9
:101550000DF0EEFF0443204610BD00002DE9FC41D4
:1015600005460E461746002000900190FFF7AEFF9B
:10157000922000F0D1F806226946122000F0ACF863
:10158000FFF79AFF9DF80100000200B29DF80010DD
:1015900040EA010400EE104AB8EEC00A4C48D0ED13
:1015A000000A20EE200A86ED000A9DF803000002E2
:1015B00000B29DF8021040EA010400EE104AB8EEB5
:1015C000C00A4348D0ED000A20EE200A86ED010A49
:1015D0009DF80500000200B29DF8041040EA0104E5
:1015E00000EE104AB8EEC00A3948D0ED000A20EEED
:1015F000200A86ED020AFFF77FFF082269460020D5
:1016000000F06AF8FFF76EFF9DF800000F2838D150
:101610009DF80300000200B29DF8021040EA0104A8
:1016200000EE104AB8EEC00A2A48D0ED000A20EEBB
:10163000200A85ED000A9DF80500000200B29DF821
:10164000041040EA010400EE104AB8EEC00A214836
:10165000D0ED000A20EE200A85ED010A9DF8070072
:10166000000200B29DF8061040EA010400EE104AA4
:10167000B8EEC00A1748D0ED000A20EE200A85ED2A
:10168000020AFFF723FFA22000F046F80222694673
:10169000222000F021F8FFF70FFF9DF80000C000A6
:1016A0009DF8011040EA6114B4F5806F02DBA4F5E7
:1016B000006004B200EE104AF8EEC00AB4EE001A60
:1016C000B3EE070A00EE810A87ED000ABDE8FC814F
:1016D000880000208C00002070B506460C46154698
:1016E00046F0800000F018F806E0552000F014F8ED
:1016F0002070641C681EC5B2002DF6D170BD70B597
:1017000004460D4644F0800000F006F8552000F035
:1017100003F8287070BD000001B582B04FF47A70F4
:10172000012301AA02A90090024806F0E1FE9DF8FB
:1017300004000EBD580A002070B505460C46284628
:10174000FFF7EAFF2046FFF7E7FF70BD30B58BB02B
:1017500005460C46069400200790012008900020C2
:1017600001900290039004900590012009900E20B2
:101770000A9001A9284604F0E7FD08B102F093FCA5
:101780000BB030BD70B504460D460F492068884245
:1017900004D100212046FFF7D9FF07E00B4920685C
:1017A000884203D10E212046FFF7D0FF204605F0E6
:1017B00028FA08B102F077FC2946204604F030FDF3
:1017C00008B102F070FC70BD006400400068004089
:1017D0002DE9F04104460E461746984614B90120FB
:1017E000BDE8F0812660002084F824002762C4F858
:1017F00028804FF4807310223946201D0DF099FF88
:1018000000250EE0094850F8250040B90321304674
:10181000FFF7B8FF054840F825400020E0E7681CC6
:10182000C5B2022DEEDB0120DAE70000080000203F
:1018300002460AB90120704709B90120FBE791620D
:101840000020F8E72DE9FF5F0446894692461D46D1
:101850004FF0010B5746CDF80090002600BF00BFA7
:10186000EFF31080804600BF72B600BF25E0201D58
:101870000DF074FF18B1002084F824001FE0A81BAD
:10188000082803DB08208DF8040003E0A81BC0B281
:101890008DF804003868CDF805007968CDF8091096
:1018A0009DF8040007449DF80400304486B2694660
:1018B000201D0DF05AFF4FF0000BAE42D7DB00BFEA
:1018C00000BF00BF88F3108800BF00BF00BF94F8BE
:1018D000240030B9201D0DF03AFF10B9204600F069
:1018E000F9FC584604B0BDE8F09F000007480068C6
:1018F0000749B0FBF1F007490870044800684FF44D
:101900007A71B0FBF1F00449086070470C050020C3
:1019100040420F00100000201400002070B5034664
:10192000002400210020002200254FF0E0267569E8
:101930000D4E366803FB06F44FF0E026B16910E067
:101940004FF0E026B06988420BD0884202D20E1ACE
:10195000324402E02E1A0E4432440146A24200D321
:1019600000E0EDE700BF70BD1400002070B5034635
:10197000002400210020002200254FF0E026756998
:101980000D4E367803FB06F44FF0E026B16910E007
:101990004FF0E026B06988420BD0884202D20E1A7E
:1019A000324402E02E1A0E4432440146A24200D3D1
:1019B00000E0EDE700BF70BD1000002010B5044648
:1019C0000CB9012010BD2260636021720020F9E78C
:1019D00070B504460D4616462560666004202072E8
:1019E000D4E9000107F088FA002070BD10B5044664
:1019F000A28891B2206805F0DDFC10BD42681AB9DA
:101A000002681268516310E04268042A03D1026838
:101A10001268916309E04268082A03D102681268DB
:101A2000D16302E0026812681164704710B505F0D6
:101A3000CFFC10BD08B5FFF759FF4FF48053314A72
:101A400003213148FFF7BAFF082230493048FFF739
:101A5000BFFF04222D492F48FFF7BAFF00222B4970
:101A60002D48FFF7B5FF00222C492D48FFF7B0FFA6
:101A700008222C492C48FFF7ABFF08222B492C48A1
:101A8000FFF7A6FF2B492C4800F0D8F84FF48060F0
:101A90002A4B42102A490090274800F020F90023E1
:101AA0004FF400722749244800F0E6F826492748F9
:101AB00000F0C4F84FF48060254B42102549009097
:101AC000224800F00CF900234FF4007222491F480D
:101AD00000F0D2F82149224800F0B0F800231E227D
:101AE00020491F4800F0C8F800231F4A1F4920481A
:101AF000FFF76EFE00231F4A1F492048FFF768FECC
:101B000008BD000000040240703F0020880B002048
:101B1000803F0020903F0020A03F0020D00B0020FD
:101B2000B03F0020400B0020C03F0020F80A0020FA
:101B3000D03F0020A00C0020E03F002050110020EA
:101B4000500F002050150020180C00201C400020D1
:101B50005019002050170020501D00205C0C002060
:101B600058400020501F00206E1F0020B4090020A4
:101B7000944000206E2F0020DC090020C04000208F
:101B8000F8B5044600262068006800F01000102810
:101B900046D12068C06800F01000002840D0A06B3B
:101BA0000068006820F00100A16B0968086000254A
:101BB0002CE0214850F82500006800682168884220
:101BC00022D11D4850F82500C088A16B09684968DA
:101BD000401A86B2184850F82500C06848B1164926
:101BE00051F825108868144951F82510CA68314603
:101BF0009047114850F82500C2880F4850F825003A
:101C00008168204607F000FD681CC5B2032DD0DBBB
:101C1000A06B0068006840F00100A16B09680860D3
:101C200000BF002000902068006800902068406895
:101C3000009000BF00BFF8BD440F002070B50446FF
:101C40000D460CB9012070BD3C212046FEF768FC12
:101C5000256000210AE0074850F8210020B9054816
:101C600040F821400020EEE7481CC1B20329F2DB16
:101C70000120E8E7440F0020F8B504460D4616465B
:101C80001F460CB90120F8BD01202071A560E68037
:101C9000E76000BF002000902068006800680090A6
:101CA000206800684068009000BF00BF206800689E
:101CB000C06840F0100021680968C860E288A16827
:101CC000206807F0A1FC0020DDE702460AB90120E8
:101CD000704709B90120FBE7D1600020F8E72DE942
:101CE000F04104460E4617461D46DDF8188014B92B
:101CF0000120BDE8F08101202074666127836563BF
:101D0000A4F83880002084F83A004246294604F1BD
:101D10001C000DF0C2FD0020EBE72DE9F047044662
:101D20008846174614B90120BDE8F087207C08B921
:101D30000120F9E794F83A0090B9208BB84202DD0F
:101D40003D46002614E0208B218F0844B84204DD74
:101D5000258B208B381A86B20AE0258B268F07E068
:101D6000208FB84202DD00253E4601E00025268F87
:101D7000002D0CDD2A4641466069FEF7B8FB0120C4
:101D800084F83A002A466169206807F075FC002E45
:101D90000DDD08EB0501324604F11C000DF088FD55
:101DA00000F0FF09B14501D00120BDE700BF0020D0
:101DB000BAE7000010B5FFF739FE04464FF47A7019
:101DC000B4FBF0F0032800D210BD1C480068201AB4
:101DD00040F6C411884208D919480078194908709A
:101DE000164804601848046025E01648007810B3CF
:101DF00015480068201A15490988884205D296219D
:101E00004FF4FA7000F076F815E00F480068201AD9
:101E10000E4909880E4A12881144884204D20021D2
:101E2000084600F067F806E006480078401E0549BD
:101E300008700548046000BFC6E700007C00002071
:101E40007400002084000020800000207600002024
:101E500078000020014908707047000074000020DD
:101E600070B52DED068B0446B0EE408A02F026F9DF
:101E70000546606828B9656025600020BDEC068BCA
:101E800070BD6068281A2169884202D9A5600120C6
:101E9000F4E718EE100AFEF71DFD41EC1A0BB0EE48
:101EA0004A0AF0EE6A0A0CF0F7FDB0EE409AF0EE46
:101EB000609A9FED0A0B53EC102B51EC190BFEF7B7
:101EC0001DFD07D22068281AE168884203D9A56061
:101ED0000120D3E725600020D0E7000000000000CB
:101EE0000000F03F002343608360C16002617047DF
:101EF00000BFFEE770B504460D4604480068006860
:101F0000C46229460148FFF779FD70BDC03F00203B
:101F100010B5024804F081FB10BD0000B409002098
:101F200070B505460E461446B5F5806F2AD005DC1F
:101F3000A5F2052098B1012836D106E0B5F5A06FCD
:101F400017D0B5F5E06F2FD125E01949D1F8A000E1
:101F5000314609F08BFB062009F05EFC25E01449B0
:101F6000D1F87001314609F081FB052009F054FCDD
:101F70001BE0A2B231460F4801F051FC132009F0DA
:101F80004BFC12E0A2B231460B4801F048FC152090
:101F900009F042FC09E0A2B23146084801F03FFCDA
:101FA000122009F039FC00E000BF00BF70BD000046
:101FB00098480020FC4F0020A850002054590020D1
:101FC00070B505460E461446B5F5806F0BD0B5F5D5
:101FD000C06F11D1A2B23146094801F020FC142093
:101FE00009F01AFC09E0A2B23146064801F017FCDC
:101FF000152009F011FC00E000BF00BF70BD00001B
:10200000FC6B0020A86C002070B505460E461446F7
:10201000B5F5A06F21D005DCA5F2092048B1012853
:1020200036D110E0B5F5C06F20D0B5F5E06F2FD1F7
:1020300025E01949D1F8A000314609F017FB0C2022
:1020400009F0EAFB25E01449D1F87001314609F0A6
:102050000DFB0B2009F0E0FB1BE0A2B231460F485C
:1020600001F0DDFB132009F0D7FB12E0A2B23146EC
:102070000B4801F0D4FB142009F0CEFB09E0A2B21A
:102080003146084801F0CBFB122009F0C5FB00E007
:1020900000BF00BF70BD000044BD0020A8C40020E8
:1020A00054C5002000CE002070B504460D462B46D6
:1020B00022464FF4E0610248FFF7C4FB70BD000008
:1020C0009440002010B5024804F0A7FA10BD0000AB
:1020D000B409002070B504460D462B4622464FF445
:1020E000C0610248FFF7AEFB70BD000094400020C5
:1020F00070B504460D462B4622464FF4A0610248B7
:10210000FFF7A0FB70BD00009440002070B50446AE
:102110000D462B4622464FF480610248FFF792FBA2
:1021200070BD00009440002010B5024804F075FA1C
:1021300010BD0000DC0900202DE9F04104460D46E9
:102140001746A4F2012020B101280CD002281ED18C
:1021500013E001F0ABFF0646294609F087FA082094
:1021600009F05AFB14E001F0A5FF0646294609F0E4
:102170007DFA092009F050FB0AE00BF07BFD0646D2
:10218000294609F073FA0A2009F046FB00E000BF77
:1021900000BFBDE8F08100002DE9F04105460C4686
:1021A000174640F20321681A8D420DD005DCA5F2D6
:1021B000012038B101284CD105E0012805D00D28B7
:1021C00047D112E000BF00BF00BF681EC6B206EBD9
:1021D0008602224901EB02110868214609F046FAFD
:1021E000711CC8B209F018FB34E020781C49087053
:1021F00060784870A0788870E078C870207908719D
:1022000060794871A0798871E079C8716078217827
:1022100040EA012012490881A07888722079E1788B
:1022200040EA01200E4988810846008900EE100A24
:10223000B8EE400A0948243880ED820A08468089B1
:1022400000EE100AB8EE400A0448243880ED830AF4
:1022500000BF00BF00BFBDE8F08100003465002072
:10226000386700202DE9F04104460D461746A4F2D8
:10227000012020B101280CD002281ED113E001F06A
:1022800015FF0646294609F0F1F9082009F0C4FABD
:1022900014E001F00FFF0646294609F0E7F909208E
:1022A00009F0BAFA0AE00BF0E5FC0646294609F007
:1022B000DDF90A2009F0B0FA00E000BF00BFBDE878
:1022C000F081000010B5024804F0A7F910BD00002D
:1022D000DC09002030B58BB004460CB90BB030BD22
:1022E00000BF00BFEFF31080054600BF72B600BF0D
:1022F000201D0DF02CFA00BB15E007A9201D0DF0E4
:10230000F9F9079801900020039004909DF82000AF
:102310000590012084F824006B460DF1210201A9EB
:10232000206803F08FFF206804F05EF940B1201DA3
:102330000DF00DFA0028E0D002E0002084F824001F
:1023400000BF00BF85F3108800BF00BF00BF00BF03
:10235000C4E7000070B504460D462A4621460548EC
:1023600001F05DFA162009F057FA012002490870C1
:1023700070BD0000AC5D0020D801002070B504469F
:102380000D462A462146034801F049FA122009F079
:1023900043FA70BD0078002070B504460D462A4609
:1023A0002146054801F03BFA162009F035FA0120D4
:1023B0000249087070BD000058D200207805002046
:1023C000704770477047000038B501F0C9FC744988
:1023D000086007F055FD7249486072488860002027
:1023E00008739FED710A084680ED820A9FED6F0A1F
:1023F00080ED040A9FED6E0A80ED050A9FED6D0ADF
:1024000080ED060A9FED680A80ED070A9FED660AD7
:1024100080ED080A68480DF0F5FA00241FE0204618
:1024200000F048FA04EB84025D49243101EB02110B
:10243000086004EB84025A49243101EB0211081DA3
:10244000B0EE002ADFED581AB2EE011ADFED5B0A9A
:102450009FED5B0A03210DF025FE601CC4B2042C25
:10246000DDDBB1EE042ADFED501AB1EE041ADFED28
:10247000550A9FED550A032154480DF013FE9FEDB8
:10248000542ADFED491AB0EE001ADFED470A9FED3E
:10249000510A03214D4844300DF004FE012364220B
:1024A0000021184609F09AF90223642200211846F7
:1024B00009F094F9032364220021184609F08EF9EB
:1024C000042364220021184609F088F903236422BA
:1024D0000121122009F082F90023642219461420F8
:1024E00009F07CF9012364221946152009F076F9D8
:1024F000002364220121172009F070F9364B4FF4B4
:1025000080623649364801F05BFA36484FF4806302
:10251000354AAA210090354801F0A6F931484FF418
:102520008063334AAA210090324801F09DF9324B72
:102530004FF400723149324801F042FA31484FF409
:102540000073314AA5210090304801F08DF9052231
:1025500000212F480AF054FF2E4B4FF400722E49F1
:102560002E4801F02DFA2D4801F03EF8642200219A
:102570002B480AF045FF2B492B48FFF7A6FB2B49B8
:102580002B48FFF7A2FB2B492B48FFF79EFB2B495B
:102590002B48FFF74DF92B490248FFF749F938BDA1
:1025A00010650020C0400020000000000000EF4344
:1025B0000080C8430000AF43587D00200000FA436C
:1025C00000401C460000484200009643746600200C
:1025D000CDCCCC3E00007A46F1200008FC670020FC
:1025E00050670020BDE10008546D0020FC6B002006
:1025F00054710020A86C0020A9200008007600205B
:1026000054750020C9BD0008AC7800200078002077
:102610002DDC0008B9370008587B0020AC7A002078
:10262000CD2F0008993D0008584000207D23000868
:10263000E03F0020C32300081C400020C11F000809
:10264000944000209921000823480068807D18B933
:102650000020214908733EE01F480068807D012862
:1026600002D11D49087336E01B480068807D0228AE
:1026700002D1194908732EE017480068807D0328AD
:1026800002D11549087326E013480068807D0528AB
:1026900002D1114908731EE00F480068807D0628AA
:1026A00002D10D49087316E00B480068807D0728A9
:1026B00002D1094908730EE007480068807D0828A8
:1026C00002D10549087306E003480068807D0428AC
:1026D00001D10149087370471065002010B5012031
:1026E000114908700020114908601149086011481B
:1026F000006890ED080A0F4880ED7B0A006890EDB5
:10270000090A0C4880ED7C0AD0ED860AF1EE600AD9
:10271000B0EE600ADFED080A00F5B2700DF0ACFB18
:10272000044880ED7D0A10BDE0040020D80400209C
:10273000DC040020106500200000000010B50E48E9
:10274000006890ED080A0C4880ED7B0A006890ED67
:10275000090A094880ED7C0AD0ED860AF1EE600A8C
:10276000B0EE600ADFED050A00F5B2700DF084FBF3
:10277000014880ED7D0A10BD106500200000204258
:102780003D48006890ED080A3B4880ED7B0A0068F0
:1027900090ED090A384880ED7C0A90ED860ADFED5D
:1027A000370AB4EEE00AF1EE10FA09D234480078A4
:1027B000012805D19FED330A2F4880ED7D0A38E0CE
:1027C0002D4890ED860ADFED2D0AB4EEE00AF1EE19
:1027D00010FA09DD2A480078012805D19FED2A0A60
:1027E000254880ED7D0A24E0234890ED860AFBEE23
:1027F0000E0AB4EEE00AF1EE10FA08DD2048007887
:1028000028B99FED210A1C4880ED7D0A11E01A4885
:1028100090ED860AFBEE0E0AB4EEE00AF1EE10FA35
:1028200007D21748007820B99FED160A124880EDAC
:102830007D0A114890ED860ADFED100AB4EE600AB9
:10284000F1EE10FA06D10E480078012802D10020DE
:102850000B490870084890ED860AFBEE0E0AB4EEAC
:10286000600AF1EE10FA05D10548007810B9012090
:1028700003490870704700001065002000002042E6
:10288000FC04002000004843000048C32DE9FC413F
:1028900004460D4616461F460549CDE900672B46FE
:1028A000224688684FF4007108F06BFFBDE8FC8198
:1028B00010650020014601EBC100024A02EB8000D6
:1028C00070470000F442002010B51C480068006901
:1028D000007A022803D101F0CDFF044602E002F0A5
:1028E00077FC044615480068807D042802D101F079
:1028F000C1FF044654F8060F1049C1F818020846F3
:102900004068D0ED120A606800EE100A30EEC00A8E
:10291000084680ED880A406890ED130A084680ED6D
:10292000890A4068D0ED140AA068A41F00EE100ABE
:1029300030EEC00A084680ED870A10BD1065002001
:1029400010B52848007850B109F034FA0078042115
:10295000B1EB101F03D124480DF000F841E02148ED
:10296000007888BB09F026FA00780421B1EB101F2B
:102970002BD11E4890ED7D0A1D48D0ED000A30EEA7
:10298000200A1A4880ED7D0A00BF90ED7D0ADFED38
:10299000190AB4EEE00AF1EE10FA05D89FED160A16
:1029A000134880ED000A0EE0104890ED7D0ADFED3F
:1029B000130AB4EEE00AF1EE10FA04DB9FED100A00
:1029C0000B4880ED000A0CE0FFE709F0F3F900780E
:1029D0000521B1EB101F04D19FED0A0A034880EDD9
:1029E0007D0A10BDE0040020587D00201065002005
:1029F000E404002000004842CDCCCC3D0000A242BF
:102A0000CDCCCCBD000000000648006890ED080A5F
:102A1000044880ED7B0A006890ED0A0A014880EDC9
:102A20007D0A70471065002010B52DED028B3B48E4
:102A3000006890ED080A394880ED7B0A006890ED47
:102A4000090A364880ED7C0A90ED7D0AF2EE040A10
:102A5000B4EEE00AF1EE10FA07D200203049088007
:102A60009FED300A304880ED000A2D480088D8BB21
:102A70002D4890ED000AF1EE040A20EE200ADFED69
:102A80002B0A20EE200ADFED2A0A80EE201AB0EE93
:102A9000418AB0EE480AFDF731FCDFED260A9FEDD2
:102AA000261A41EE000A1D48C0ED7D0A1E4890ED31
:102AB000000AF7EE000A30EE200A80ED000A90EDE1
:102AC000000AF1EE040A20EE200ADFED1C0AB4EE43
:102AD000E00AF1EE10FA1DDDFEF7A8FF18490880A4
:102AE00001200F49088015E0FFE7FEF79FFF154919
:102AF00008800846008812490988401A47F2305178
:102B0000884207DD9FED070A074880ED000A002094
:102B100003490880BDEC028B10BD00001065002049
:102B2000D604002000000000F8040020DB0F49401C
:102B300000409C460000FA420080BB4300401C4617
:102B4000D2040020D40400209FED060A064880ED40
:102B50007B0A9FED040A80ED7C0A9FED020A80ED5E
:102B60007D0A7047000000001065002070470000DB
:102B700000BFFFF7A9FEFFF767FD5548007B092856
:102B80001ED2DFE800F01D05080B0E1114171A0005
:102B9000FFF7DAFF15E0FFF7A1FD12E0FFF734FFC2
:102BA0000FE0FFF7CDFE0CE0FFF73EFF09E0FFF777
:102BB000DDFF06E0FFF7C2FD03E0FFF7E1FD00E007
:102BC00000BF00BF424800F09FF8002438E04148B1
:102BD00000EB840090ED000A04EB84013C482430B3
:102BE00000EB011080ED120A04EB84023849243115
:102BF00001EB021191ED121AF0EE410A04EB84028E
:102C00003349243101EB02110968B1F9041001EED6
:102C1000101AB8EEC11AB0EE410A04EB84022C4936
:102C2000243101EB0211081D0DF026F904EB84019B
:102C30002748243000EB011080ED130A601CC4B259
:102C4000042CC4DB224800F079F82148007B78B9D5
:102C500000200BE09FED200A00EB80021C4924318C
:102C600001EB021181ED130A411CC8B20428F1DB0B
:102C7000174988680AF0E8FC154C94ED580ABDEE37
:102C8000C00A10EE104A23B2114C94ED440ABDEE76
:102C9000C00A10EE104A22B20D4C94ED300ABDEE7F
:102CA000C00A10EE104A21B2094C94ED1C0ABDEE88
:102CB000C00A10EE104A20B2FFF7E8FD05200DF023
:102CC0008CF800200DF0B2FF0449086051E70000C5
:102CD000106500200867002000000000CC040020E0
:102CE00000B587B01C2206496846FDF700FC0021AC
:102CF00068460DF093F80349086007B000BD000076
:102D0000F8170108C804002010B50446094A0A490A
:102D1000204600F0F9F894ED7D0AB0EE401A05481F
:102D2000D0ED000A044890ED000A204608F0D4FADD
:102D300010BD0000B4040020B004002070B52DEDDB
:102D40000E8B04469FED670AB0EE40EA9FED650AE0
:102D5000B0EE408A9FED630AF0EE408A9FED610A73
:102D6000B0EE409A9FED5F0AF0EE409A09F026F827
:102D700005461DB1122000F015F920B19FED5A0A49
:102D8000B0EE40EA5AE0022D01D0662D04D19FED4D
:102D9000570AB0EE40EA51E009F0B6F8008900EEBB
:102DA000100AB8EE400AF0EE408A09F0B1F8408906
:102DB00000EE100AB8EE400AF0EE409A9FED4C0A81
:102DC000F4EEC08AF1EE10FA14D2F1EE040AF4EE39
:102DD000E08AF1EE10FA04DDDFED450A88EEA00A84
:102DE00001E09FED440ADFED440A60EE200AB0EEF8
:102DF00060EA23E09FED410AB4EEC09AF1EE10FACA
:102E000018DDB4EEE99AF1EE10FA08D279EEC90AAB
:102E10009FED3A1A39EEC11A80EE810A01E09FED6A
:102E2000310ADFED350A9FED361A41EE000AB0EEA9
:102E300060EA03E09FED330AB0EE40EA00262AE0A4
:102E400006EB860204F1240000EB021090ED130A59
:102E500010EE101A0846FDF73DFD41EC1D0BB0EEDB
:102E60004D0AF0EE6D0A0BF017FEB0EE40BAF0EE30
:102E700060BA18EE100AFDF72DFD41EC1C0B53EC67
:102E80001B2BFDF768FB41EC1A0BFDF767FD08EE05
:102E9000100A701CC6B2042ED2DBB4EECE8AF1EE5C
:102EA00010FA1CDDCEEE080AB0EE600AD4ED1C0A62
:102EB00060EE800AC4ED1C0AD4ED300A60EE800A90
:102EC000C4ED300AD4ED440A60EE800AC4ED440A31
:102ED000D4ED580A60EE800AC4ED580A00BFBDEC7C
:102EE0000E8B70BD000000000000FA4500007A471C
:102EF00000004842CDCCCC3D00007A460000204284
:102F000000409C4600A00C4770B52DED028B044696
:102F10000D46164694ED860ADFED1F0A80EE201A54
:102F2000B0EE418AB0EE480AFDF7E8F91B4880EDA3
:102F3000000A94ED860ADFED180A80EE201AB0EE42
:102F4000418AB0EE480AFDF79DF9154880ED000A68
:102F500094ED7B0AD0ED000A20EE200AD4ED7C0A25
:102F60000E4890ED001A01EE200A85ED000A94ED5E
:102F70007B0AD0ED000AF1EE600A20EE200AD4EDC3
:102F80007C0A074890ED001A01EE200A86ED000A3F
:102F9000BDEC028B70BD0000333365429404002009
:102FA000980400200146044800EB0110C078012875
:102FB00000D170470020FCE71C4500200146024874
:102FC00000EB0110406870471C45002070B586B0CA
:102FD000064601F04FFC044608F0F0FE0546284680
:102FE00000F020FB05F5807000F016FB01200321A6
:102FF0000F22A1A3CDE90132CDE90310232040F235
:10300000663300229EA100909E4800F082FA0020C4
:103010000C2106221923CDE90032CDE902104FF42C
:103020005273024698A1994800F072F901200321D9
:103030000F2297A3CDE90132CDE903105F2040F2C2
:103040006633002295A10090954800F062FA0020B6
:103050000C2106225523CDE90032CDE902104FF4B0
:10306000527302468FA1904800F052F901200321CB
:103070000F228EA3CDE90132CDE903106FF01800C5
:1030800040F2663300228CA100908C4800F041FA97
:1030900000200C2106226FF02203CDE90032CDE999
:1030A00002104FF45273024685A1864800F030F9B1
:1030B000012003210F2284A3CDE90132CDE90310C1
:1030C0009B2040F26633002282A10090824800F0EB
:1030D00020FA00200C2106229123CDE90032CDE90F
:1030E00002104FF4527302467CA17D4800F010F9A3
:1030F0007C48007B052804D10221644800F07CFA5A
:1031000003E00021614800F077FA7648007B03284D
:1031100004D10221644800F06FFA03E00021624804
:1031200000F06AFA7048007E022804D10221654846
:1031300000F062FA03E00021624800F05DFA6A489C
:10314000B0F8400020B90021654800F055FA08E0C9
:103150006548B0F84000012803D10221604800F022
:103160004BFA61480069807CC0F3801028B30120CD
:10317000022100221A23CDE901326FF049030092A7
:10318000CDE90310052259A1594800F069F9012140
:1031900003221423D4F80A0000EE100ABDEEC00A80
:1031A0008DED010AC820CDE9023204910090514B07
:1031B0000A4651A1514800F0FAF8D4F80A0000EE8E
:1031C000100AB1EE400ADFED4E0A20EE200ABDEEF5
:1031D000C00A10EE101A494800F02AFA4148006867
:1031E000407EA8B9022003211E223E4B93ED820AA5
:1031F000BDEEC00A8DED010ACDE9022104908C20BC
:103200003C4B5A3301223FA100903F4800F0CFF8D9
:1032100034480068407E012815D1052003211E2274
:10322000304B93ED820ABDEEC00A8DED010ACDE967
:10323000022104908C202F4B5A33012231A100909F
:10324000314800F0B4F8274890ED820ABDEEC00A7C
:1032500010EE101A2C4800F0EBF9214827492B4AB0
:10326000184BCDE9002102900F4A0849264800F08A
:1032700011FA06B070BD00003A7370696E0000006C
:1032800078746C00817E002068680000367E002023
:103290003A736570617261746500000063687A005A
:1032A000087F002063680000457E00203A6D61675A
:1032B000617A696E65000000637A6B00DB7E002036
:1032C000637A0000637E00203A61696D6D6F64650A
:1032D0000000000067697A00357F002062740000FA
:1032E000727E002010650020E046002063783100E7
:1032F000737D002076FDFFFF70697400168000204A
:1033000000007A446E756D00078000202580002043
:103310002DE9F05F04460D4616461F46DDE90CAB6D
:10332000DDE90A890CB9BDE8F09F0F212046FDF7C1
:10333000F7F82846FDF7FFF8032800D9F3E72946F8
:103340002046FDF7FFF814F8030F20F00700401C9B
:103350002070207820F0380010302070208866F32C
:103360008910208007F57070B4F8051060F38C01A7
:10337000A4F8051008F50770E18860F34F11E180AB
:10338000208969F309002081A0886AF30900A080E0
:1033900060786BF385006070E41E40F2011000F06D
:1033A00035F90F21204600F04FF900BFBBE72DE9AA
:1033B000F05F04460D4616461F46DDE90CABDDE91D
:1033C0000A890CB9BDE8F09F0F212046FDF7A8F847
:1033D0002846FDF7B0F8032800D9F3E72946204630
:1033E000FDF7B0F814F8030F20F00700401C207020
:1033F000207820F0380030302070208866F3891063
:10340000208007F57070B4F8051060F38C01A4F803
:10341000051008F50770E18860F34F11E180B4F8FA
:1034200001006AF38E10A4F801000321608861F3A3
:10343000CF106080A0886BF30900A08061780E989F
:1034400060F385016170C4F80890E41E40F2011039
:1034500000F0DCF80F21204600F0F6F800BFB1E7DD
:103460002DE9F05F04460D4616461F46DDE90CAB1C
:10347000DDE90A890CB9BDE8F09F0F212046FDF770
:103480004FF82846FDF757F8032800D9F3E72946F7
:103490002046FDF757F814F8030F20F00700401CF2
:1034A0002070207820F038002070208866F3891082
:1034B000208007F57070B4F8051060F38C01A4F853
:1034C000051008F50770E18860F34F11E18009F5F8
:1034D0007070B4F8091060F38C01A4F809100AF5B3
:1034E0000770618960F34F116181A0886BF3090057
:1034F000A08061780E9860F385016170E41E40F24F
:10350000011000F083F80F21204600F09DF800BF65
:10351000B1E72DE9F05F04460D4616461F46DDE98A
:103520000B8ADDF828900CB9BDE8F09F2D212046CC
:10353000FCF7F6FF2846FCF7FEFF032804D84046B8
:10354000FCF7F9FF1E2800D9EEE729462046FCF7D4
:10355000F9FF14F8030F20F00700401C20702078BA
:1035600020F0380038302070208866F389102080E1
:1035700007F57070B4F8051060F38C01A4F805101D
:1035800009F50770E18860F34F11E180B4F801009C
:103590006AF38E10A4F801004046FCF7CCFF618866
:1035A00060F3CF116180A1880D9860F30901A180BB
:1035B00061780E9860F385016170E41E414604F164
:1035C0000F00FCF7BFFF4FF4887000F01FF8404673
:1035D000FCF7B1FF0F301FFA80FB5946204600F080
:1035E00033F800BFA0E7000000B970470149086048
:1035F00000BFFAE76000002008B1082900DD70472D
:10360000027961F38502027100BFF8E70149088081
:103610007047000058000020014988807047000072
:1036200058000020014948807047000058000020E1
:1036300020B1C278C2F3C202062A00D07047C0F897
:103640000B1000BFFAE7000038B505460C460E48DF
:10365000006800B938BD0D480D490A6802608988C4
:10366000818022462946801DFCF741FFA01D80B2C3
:10367000064B40F20132A52100900348006800F09B
:103680003FF900BFE6E70000600000207041002025
:10369000580000202DE9F04F8BB007468846914630
:1036A0009A460024A3460497CDF81480CDF81890CC
:1036B000CDF81CA0149808901598099016980A90B7
:1036C0003A4E002007E004A951F8201009B1611C0E
:1036D000CCB2411CC8B20728F5DB012C05D1A346AA
:1036E00040F20110FFF792FF1CE0022C05D1A34627
:1036F0004FF48170FFF78AFF14E0052C06DC4FF0D1
:10370000050B40F20310FFF781FF0BE0072C06DCEE
:103710004FF0070B4FF48270FFF778FF02E00BB019
:10372000BDE8F08F2248016831608088B080B61D06
:10373000002518E004A850F8250090B104A850F81E
:103740002500C07820F00700801C04A951F825103E
:10375000C87004A850F825100F223046FCF7C7FEA9
:103760000F36681CC5B2072DE4DB5C4510DA00207B
:10377000009001900290039007E00F2269463046C6
:10378000FCF7B5FE0F36601CC4B25C45F5DB00BF2C
:10379000C4EB0410801D054B40F20132A5210090BE
:1037A0000448006800F0ACF800BFB8E770410020A2
:1037B000580000206000002070B504460D462A46DF
:1037C00021460248FEF7A9FA70BD0000E03F002044
:1037D0002DE9FF470446884699460C9D05F10900EE
:1037E00086B2802E03DD002004B0BDE8F08704F12E
:1037F000210787F80080A7F801503846BDF8081067
:10380000E18405210BF068FC2A464946F81DFCF7C7
:103810006EFE314638460BF049FC3046E4E770B5A1
:1038200004460E46154604B970BD04F108000BF0BD
:10383000BBFFA84205DD2A46314604F108000CF022
:1038400037F800BFF0E7000070B50648456804E0AF
:103850002C46204600F0D8F86D6802488542F7D122
:1038600070BD0000180000202DE9F04704460E4608
:1038700017469846DDF820900CB9BDE8F0870D4852
:10388000456803E0A54200D1F7E76D680948854225
:10389000F8D1014620460CF06DFA84F820604246CB
:1038A000394604F108000BF0F8FFC4F8A89000BFF7
:1038B000E3E700001800002000BFFFF7C5FF00F09D
:1038C00041F801200CF089FA00200DF0AFF9014910
:1038D0000860F2E73001002000B587B01C220649DD
:1038E0006846FCF704FE002168460CF097FA03498D
:1038F000086007B000BD0000341701082C0100204B
:103900002DE9F84304460E4617469846089D0CB923
:10391000BDE8F88304F108000BF046FFA8420FDD74
:1039200043463A46314620460095FFF751FF81460F
:103930004A4604F1210104F108000BF0B9FF00BF71
:1039400000BFE5E72DE9F041A0B080216846FCF713
:10395000E7FD0026B04600271848456827E02C46BA
:1039600004F108000BF0F7FF86B2FEB1D4F8A8000E
:1039700050B1D4F8A80080478046B04501DA4046EF
:1039800000E03046074600E03746802F00DD802704
:103990003A46694604F108000BF02FFFD4F8A40062
:1039A00020B139466846D4F8A42090476D68034892
:1039B0008542D4D120B0BDE8F08100002000002075
:1039C0002DE9F04104460F4690461E460CB9BDE86D
:1039D000F0810C48456803E0A54200D1F7E76D6827
:1039E00008488542F8D1014620460CF0C3F942460A
:1039F000394604F108000BF050FFC4F8A46000BF82
:103A0000E5E700002000002070B5044600258AE0AC
:103A100004F108000BF0CBFE054694F821000628BF
:103A20007BD2DFE800F003141F353F5794F82000E5
:103A3000A84209D1012084F82100618C481C6084CF
:103A400004F12600455401E0002060846AE0A5846A
:103A5000618C481C608404F126004554022084F8DF
:103A600021005FE0A08C40EA0520A084618C481C06
:103A7000608404F126004554A08C772803D20320EB
:103A800084F8210003E0002084F82100608449E0EC
:103A9000618C481C608404F126004554042084F89D
:103AA00021003FE0618C481C608404F126004554ED
:103AB000608C05280DD1052104F126000DF0B6FA21
:103AC00018B1052084F8210003E0002084F82100CB
:103AD000608427E0618CA08C0930814205D2618C22
:103AE000481C608404F126004554618CA08C093088
:103AF000814210D3002084F821006084A08C00F162
:103B0000090104F126000DF073FA20B104F1260139
:103B100020460AF03BFB05E0FFE7002084F8210087
:103B2000608400BF00BF04F108000BF014FF002800
:103B30007FF46EAF70BD0000074A517D814207D00F
:103B4000064A92ED320A82ED5B0A002382F86A315E
:103B5000014A507D70470000E04600209848002050
:103B60007047000000BF08F0DBF9FFF7F9FFFFF72F
:103B7000E3FF4148007D20B101282ED0022862D108
:103B800051E03E480078032813D101F021FB007872
:103B9000012807D001F01CFB007818B1012036493C
:103BA000087519E0012034490870887502204870B2
:103BB00012E000F05FFE0078012807D000F05AFE06
:103BC000007818B101202C49087505E001202A4928
:103BD000487588750220C87536E02748407D0A2858
:103BE00017D025480069007A022802D108F0CCF9E4
:103BF00018E021480069007A012802D106F0F0FAA5
:103C000010E01D480069007A03280BD107F010FE70
:103C100008E01A480078032802D107F009FE01E005
:103C200008F0B2F910E01720FFF7BCF918B900202E
:103C30001149087506E000200F494875087088751D
:103C4000C875487000E000BF00BF1720FFF7AAF951
:103C500010B1022008490875074816220169084872
:103C6000FCF745FC05200CF0B8F800200CF0DEFF56
:103C70000449086077E70000E046002028010020A2
:103C8000304700206401002000B587B008F084F8B8
:103C9000274908610020087501208875487508705B
:103CA0000220C8754870002081F834000873087637
:103CB000C8760877012088760020C883A1F84000E4
:103CC000A1F84E000120487700201A4908801A49BF
:103CD00008801A4908800120194908809FED190AB7
:103CE000134880ED0E0A9FED170A80ED0F0AF021B0
:103CF00015480CF0A1FE4FF4967114480CF09CFE90
:103D00004FF4D87112480CF097FE4FF4D871114857
:103D10000CF092FE1C2210496846FCF7E8FB0021DB
:103D200068460CF07BF80D49086007B000BD000044
:103D3000E04600204E0100205001002052010020EA
:103D400054010020000000007001002084010020C8
:103D500098010020AC0100208817010860010020B4
:103D600000487047E0460020F8B504460D4608F0CC
:103D700013F806462A46214607F056FF234601223D
:103D8000AA2104480095FFF7BBFD172007F044FD6A
:103D9000F8BD0000504B0020F8B504460D4607F072
:103DA000FBFF06462A46214607F03EFF2346012236
:103DB000AA2104480095FFF7A3FD172007F02CFD6A
:103DC000F8BD000050670020F8B504460D4607F026
:103DD000E3FF06462A46214607F026FF2346012236
:103DE000AA2104480095FFF78BFD172007F014FD6A
:103DF000F8BD0000FCBF002010B5024802F0E4FF4F
:103E000010BD0000A40D002010B5024802F0DCFF38
:103E100010BD0000040E002010B5024802F0D4FFCF
:103E200010BD0000E40C002010B5024802F0CCFFE9
:103E300010BD0000640E002010B5024802F0C4FF5F
:103E400010BD0000440D002001680A4BCAB2103AB0
:103E5000A3FB02321209084B9B5CC365032A04D9F9
:103E60006FF30901091D816502E06FF309018165A6
:103E7000806D7047ABAAAAAA141801080146002059
:103E80008A6A8B69002B0FD0B3F5005F1DD08AB30F
:103E9000012A30D0022A2ED0032A04D1C96A11F097
:103EA000807F00D0012070471AB1012A07D0022A72
:103EB000F9D1C96A11F0807FF5D001207047C96A35
:103EC000B1F1C07FFAD1012070475AB1012A0BD05D
:103ED000022A07D0032AF7D1C96AB1F1C07FF3D112
:103EE0000120704701207047C96A11F0807FFAD025
:103EF00001207047FFE70120704710B4D0F800C0E0
:103F0000DCF8004024F48024CCF80040D0F800C055
:103F1000CCF804308368402B05D0036899600068B2
:103F2000C26010BC704703689A600068C16010BC32
:103F30007047704700BFFDF779FD0546FF26002456
:103F4000012026E02A4901EB00114968691A284A34
:103F500002EB00129268914215D9254901EB00113C
:103F6000097881B10121224A02EB0012D170204967
:103F700001EB00118978B1420ADA1D4901EB001109
:103F80008E78C4B204E00021194A02EB0012D1700D
:103F9000401C1828D6DBC4B1154901EB0411087B7D
:103FA000FDF758FF124800EB0410807818B911484B
:103FB0000AF0C6FD10E00E4800EB041080780128DE
:103FC0000AD10D480AF0BCFD06E04FF0FF200AF0D0
:103FD000B7FD0020FDF73EFFFDF7ECFE14200BF0CF
:103FE000FCFE00200CF022FE04490860A3E700005C
:103FF0001C4500200000FFFFFF0000FF38010020EB
:1040000000B587B01C2206496846FCF770FA00210B
:1040100068460BF003FF0349086007B000BD0000CD
:10402000501701083401002010B52DED048B044613
:10403000B0EE408AF0EE608AB0EE419A84ED228ABA
:10404000C4ED238A94ED221AF0EE410A94ED231A6E
:10405000B0EE410A20460BF00FFF94ED0B0A84ED01
:10406000240A84ED259A94ED241AF0EE410A94ED89
:10407000251AB0EE410A04F144000BF0FDFE94ED68
:104080001C0ABDEC048B10BD10B5082003F070F8BD
:1040900010BD10B5102003F06BF810BD10B5202036
:1040A00003F066F810BD72B600BFFEE70048704727
:1040B000CC43002000487047F043002010B503F0C7
:1040C00087F910BD10B52DED028B9FED220AB0EEE1
:1040D000408A0121204880F8B810022180F8881118
:1040E00090ED2F0A0068D0ED0C0A30EE200AB0EEF9
:1040F000408A194890ED320AF0EE400AB0EE480AC4
:10410000FDF71CF9144880ED2F0A9FED120A80ED8F
:10411000630A00BF90ED630AD0ED610AB4EEE00AD5
:10412000F1EE10FA04D890ED610A80ED630A0DE01B
:10413000094890ED630AD0ED600AB4EEE00AF1EEB2
:1041400010FA03DB90ED600A80ED630A00BFBDEC5E
:10415000028B10BD000000009848002008B5022026
:104160009649087001209649487596488860FFF77F
:10417000F7FD9349086005F083FE9149486008F017
:10418000B1F88F49C8600AF075F98D49086100F0EF
:1041900037FC8B49C1F8700100F048FC8849C1F830
:1041A000A0003C218648A0F8741140F20521A0F837
:1041B00076119FED850A80ED5F0A9FED840A80ED00
:1041C000600A9FED830A80ED610A41F6AB51A0F8C9
:1041D000A4100021A0F8A6109FED7B0A80ED2B0A09
:1041E0009FED7C0A80ED2C0A9FED7B0A80ED2D0A65
:1041F000B0EE000A794880ED010A9FED790A80ED62
:10420000070A9FED780A80ED050AB6EE000A80EDF8
:10421000060A7548FDF752F8B2EE0E2AF6EE001ABD
:104220009FED721ADFED720A9FED720A0321644856
:10423000D0300BF037FFB2EE042ADFED6D1A9FEDA0
:104240006E1ADFED6E0A9FED6E0A03216D480BF0CA
:1042500029FFB2EE042ADFED661A9FED6B1ADFED3F
:10426000640A9FED640A032166488C300BF01AFF44
:104270009FED5F2ADFED651A9FED651ADFED650A98
:104280009FED5F0A03215F48D0300BF00BFF9FEDDD
:10429000622ADFED571A9FED611ADFED610A9FED8B
:1042A000600A0321504828300BF0FCFE00236422F2
:1042B0001946052007F092FA0023642219460620C9
:1042C00007F08CFA012364220021082007F086FA07
:1042D000022364220021092007F080FA03236422CC
:1042E00000210A2007F07AFA032364220121122018
:1042F00007F074FA012364221946132007F06EFABE
:10430000002364221946152007F068FA002364226E
:104310000121172007F062FA424B4FF480624249B4
:104320004248FFF74DFB42484FF48063414AAA21BF
:1043300000904148FFF798FA3D484FF480633F4AA8
:10434000AA2100903E48FFF78FFA0F2200213D4836
:1043500009F056F83C484FF400733C4AA521009000
:104360003B48FFF781FA3B4B4FF480723A493B4898
:10437000FFF726FB3A484FF480733A4A55210090E4
:104380003948FFF771FA05220021384809F038F85A
:1043900037493848FDF799FC37493848FDF795FC0F
:1043A00037493848FDF791FC37490648FDF740FA90
:1043B00036493748FDF73CFA08BD0000D801002017
:1043C00098480020944000200000343D00000C423A
:1043D00000000CC20000B4420000B4C274620020AD
:1043E000CDCC4C3FCDCCCCBED84A002000004842BA
:1043F000000000000000FA440000C84200803B4575
:104400000060EA46AC490020000034420AD7233C51
:1044100000005C420080BB454260E53B1283C03C2B
:1044200000004843D5200008FC4B0020504B0020E2
:10443000BDE1000854510020FC4F002054550020DD
:10444000A8500020B5470008C9BD0008005A002048
:104450005459002069E60008AC5C0020005C002094
:1044600085E40008585E0020AC5D002001E50008EE
:10447000693D00085840002055230008E03F002017
:10448000C12300081C400020211F0008392100081A
:10449000C040002010B52DED028B00BFFFF760FC7F
:1044A00090F8484001212A4880F8B810022180F88D
:1044B000881190ED2F0A0068D0ED0C0A70EE200AEA
:1044C0005A2014FB00F000EE100AB8EEC00A30EEDD
:1044D000800AB0EE408A1E4890ED320AF0EE400AA3
:1044E000B0EE480AFCF72AFF194880ED2F0A90ED3C
:1044F000630A0068D0ED0B0A30EE200A144880ED04
:10450000630AFFF72DFC002180F8481000BF104817
:1045100090ED630AD0ED610AB4EEE00AF1EE10FA14
:1045200004D890ED610A80ED630A0DE0084890ED33
:10453000630AD0ED600AB4EEE00AF1EE10FA03DB94
:1045400090ED600A80ED630A00BFBDEC028B10BDE8
:104550009848002010B52DED028B9FED2E0AB0EE8D
:10456000408AFFF7FDFB90F8484001212A4880F877
:10457000B810022180F8881190F96A0110B1012861
:1045800044D11BE0244890ED321AF0EE410A90ED40
:104590005B1AB0EE410AFCF7D1FE1F4880ED2F0AEE
:1045A00090ED630A0068D0ED0B0A30EE200A1A483D
:1045B00080ED630A012180F86A1127E0164890ED2A
:1045C0002F0A0068D0ED0C0A70EE200A5A2104FB75
:1045D00001F000EE100AB8EEC00A30EE808A0E48F4
:1045E00090ED320AF0EE400AB0EE480AFCF7A6FE63
:1045F000094880ED2F0A90ED630A0068D0ED0B0AA0
:1046000030EE200A044880ED630A00BF00BFBDEC15
:10461000028B10BD00000000984800202948407D12
:104620002849887508460068407D10B90020487503
:1046300047E024480068407D092802D12149487597
:104640003FE020480068407D012802D11D4948759F
:1046500037E01C480068407D022802D1194948759E
:104660002FE018480068407D032802D1154948759D
:1046700027E014480068407D042802D1114948759C
:104680001FE010480068407D052802D10D4948759B
:1046900017E00C480068407D062802D1094948759A
:1046A0000FE008480068407D082803D1072005492D
:1046B000487506E003480068407D0A2801D1014999
:1046C00048757047984800200848407F20B9B7EEE9
:1046D000000A074880ED000A0448407F012804D101
:1046E000BFEE000A024880ED000A7047E046002055
:1046F0002C02002010B52DED028B01212B4880F8F3
:10470000B81080F888119FED2A0AB0EE408A9FED1C
:10471000280AF0EE408A90ED2F0A0068D0ED0C0ACE
:1047200030EE200AB0EE408A204890ED630A00681F
:10473000D0ED0B0A30EE200AF0EE408A1B4890EDD7
:10474000320AF0EE400AB0EE480AFCF7F7FD1748CF
:1047500080ED2F0A90ED660AF0EE400AB0EE680A8E
:10476000FCF7ECFD114880ED630A00BF90ED630A91
:10477000D0ED610AB4EEE00AF1EE10FA04D890ED43
:10478000610A80ED630A0DE0084890ED630AD0ED00
:10479000600AB4EEE00AF1EE10FA03DB90ED600A75
:1047A00080ED630A00BFBDEC028B10BD984800206D
:1047B0000000000038B5054600F05CF804461248D9
:1047C000407D2070114890F8200060700E48D0F8AD
:1047D0009401C4F802000C48D0F8C400C4F80600E4
:1047E0000948D0F89801C4F80A000748D0F8C80072
:1047F000C4F80E00122023460322AA210090044888
:10480000FFF77EF8002038BD984800207462002031
:10481000504B002038B5054600F0DAFC044612483B
:10482000407D2070114890F8200060700E48D0F84C
:104830009401C4F802000C48D0F8C400C4F8060083
:104840000948D0F89801C4F80A000748D0F8C80011
:10485000C4F80E00122023460422AA210090044826
:10486000FFF74EF8002038BD44BD00209CD6002044
:10487000FCBF0020004870474C41002010B527487D
:10488000807D012809D040F2E24125480CF0D4F89F
:1048900040F2E24123480CF0CFF802211F4880F893
:1048A000B81080F8881190ED310A80ED2F0A1D486C
:1048B0000CF0A2F8F7EE000A30EEC00A1748D0ED6F
:1048C000650A20EE200A80ED630A90ED650AB0EEDD
:1048D000C00AF1EE000AB4EEE00AF1EE10FA1BD8BD
:1048E0000F480CF089F8F7EE000A30EEC00A0B48CA
:1048F000D0ED310A20EE200A80ED2F0A90ED310A2A
:10490000B0EEC00AF1EE000AB4EEE00AF1EE10FAE1
:1049100002D804200149487510BD000098480020C5
:104920000C04002020040020417E027E914219D018
:10493000017E41B9B0F9C81000EE101AB8EEC00AF5
:1049400080ED070A0EE0017E012904D190ED0A0AEC
:1049500080ED070A06E0017E022903D190ED090AE5
:1049600080ED070A017E4176704710B50446204667
:10497000FFF7DAFF207E68B994ED070ABDEEC00AA2
:1049800010EE100A00B2A4F8C80004F1300001F0E3
:104990003DFC34E0207E012817D1D4ED0B1AB0EE97
:1049A000611AD4ED0A1AF0EE610AD4ED071AB0EEDE
:1049B000610A04F1300001F0F9FBBDEEC00A10EE0F
:1049C000100A00B2A4F8C80019E0207E022816D10F
:1049D000D4ED0B1AB0EE611AD4ED091AF0EE610AAB
:1049E000D4ED071AB0EE610A04F1300001F0DEFBED
:1049F000BDEEC00A10EE100A00B2A4F8C80010BD47
:104A000000487047A84300207CB504460D460020AE
:104A100000900549019023462A46886840F2FF111C
:104A200006F0AFFE7CBD00009848002000487047AB
:104A30008443002010B52DED028B01202E49087013
:104A400000BFFFF78DF990F8484001212B4880F80E
:104A5000B810022180F8881190ED2F0A0068D0ED7F
:104A60000C0A70EE200A5A2014FB00F000EE100A27
:104A7000B8EEC00A30EE800AB0EE408A1F4890EDD2
:104A8000320AF0EE400AB0EE480AFCF757FC1B4829
:104A900080ED2F0A90ED630A0068D0ED0B0A30EE2E
:104AA000200A164880ED630AFFF75AF9002180F8C2
:104AB000481000BF114890ED630AD0ED610AB4EED2
:104AC000E00AF1EE10FA04D890ED610A80ED630A75
:104AD0000DE00A4890ED630AD0ED600AB4EEE00AFA
:104AE000F1EE10FA03DB90ED600A80ED630A00BF7F
:104AF000BDEC028B10BD000035040020984800205A
:104B000010B52DED028B9FED220AB0EE408A0121F7
:104B1000204880F8B810022180F8881190ED2F0A03
:104B20000068D0ED0C0A30EE200AB0EE408A194839
:104B300090ED320AF0EE400AB0EE480AFCF7FEFBB8
:104B4000144880ED2F0A9FED120A80ED630A00BF22
:104B500090ED630AD0ED610AB4EEE00AF1EE10FACE
:104B600004D890ED610A80ED630A0DE0094890EDEC
:104B7000630AD0ED600AB4EEE00AF1EE10FA03DB4E
:104B800090ED600A80ED630A00BFBDEC028B10BDA2
:104B90000000000044BD002008B5022097490870BD
:104BA00001209749487597488860FFF7D9F89449DC
:104BB000086005F065F99249486007F093FB904959
:104BC000C86009F057FC8E490861FFF72FFF8C4938
:104BD000C1F8A000FFF714FF8949C1F8700140F641
:104BE0008C218748A0F8741140F20521A0F87611B5
:104BF0009FED850A80ED5F0A9FED840A80ED600AD3
:104C00009FED830A80ED610A40F65B51A0F8A41085
:104C100041F6D841A0F8A6109FED7B0A80ED2B0A43
:104C20009FED7C0A80ED2C0A9FED7B0A80ED2D0A1A
:104C3000B0EE000A794880ED010A9FED790A80ED17
:104C4000070A9FED780A80ED050AB6EE000A80EDAE
:104C5000060A7548FCF752FB9FED742ADFED741AC3
:104C60009FED741ADFED720A9FED730A0321644809
:104C7000D0300BF017FA9FED712ADFED711A9FED1E
:104C8000711ADFED710A9FED710A032170480BF074
:104C900009FAB2EE022ADFED661A9FED6E1ADFED19
:104CA000640A9FED650A032169488C300BF0FAF91C
:104CB0009FED5F2ADFED681A9FED601ADFED670A4E
:104CC0009FED620A03216248D0300BF0EBF99FEDB3
:104CD000642ADFED571A9FED631ADFED630A9FED3B
:104CE000620A0321504828300BF0DCF900236422CB
:104CF00019460B2006F072FD0023642219460C2091
:104D000006F06CFD002364221946082006F066FDBB
:104D1000002364221946092006F060FD0323642263
:104D200000210A2006F05AFD0323642201211220EB
:104D300006F054FD012364221946132006F04EFDAF
:104D4000002364221946142006F048FD0023642243
:104D50000121172006F042FD444B4FF48062444984
:104D60004448FEF72DFE44484FF48063434AAA218D
:104D700000904348FEF778FD3F484FF48063414A76
:104D8000AA2100904048FEF76FFD0F2200213F4806
:104D900008F036FB3E484FF400733E4AA5210090D0
:104DA0003D48FEF761FD3D4B4FF480723C493D4864
:104DB000FEF706FE3C484FF480733C4A55210090B4
:104DC0003B48FEF751FD0A2200213A4808F018FB43
:104DD00039493A48FCF779FF39493A48FCF775FFF9
:104DE00039493A48FCF771FF39490648FCF720FD7C
:104DF00038493948FCF71CFD08BD00007805002043
:104E000044BD0020944000200000343D00000C42CE
:104E100000000CC20000B4420000B4C29CD60020C6
:104E2000CDCC4C3FCDCCCCBE84BF00200000F042A6
:104E300000000000000000420000FA440000204290
:104E4000CDCC4C3E0000C44200803B450060EA46A9
:104E500058BE002000005C420AD7233C0080BB45BE
:104E6000D044D83B1283C03C000048430D210008C9
:104E7000A8C00020FCBF0020BDE1000800C6002043
:104E8000A8C4002000CA002054C50020154800080E
:104E9000C9BD0008ACCE002000CE002081E600088D
:104EA00058D10020ACD0002085E4000804D30020B5
:104EB00058D20020B5E50008C93D00085840002040
:104EC00099230008E03F0020C52300081C40002073
:104ED0000920000865220008C040002010B52DED13
:104EE000028B00BFFEF73CFF90F8484001212A48A2
:104EF00080F8B810022180F8881190ED2F0A006820
:104F0000D0ED0C0A70EE200A5A2014FB00F000EEDF
:104F1000100AB8EEC00A30EE800AB0EE408A1E4891
:104F200090ED320AF0EE400AB0EE480AFCF706FABD
:104F3000194880ED2F0A90ED630A0068D0ED0B0A46
:104F400030EE200A144880ED630AFEF709FF0021C5
:104F500080F8481000BF104890ED630AD0ED610A58
:104F6000B4EEE00AF1EE10FA04D890ED610A80ED9B
:104F7000630A0DE0084890ED630AD0ED600AB4EED4
:104F8000E00AF1EE10FA03DB90ED600A80ED630AAF
:104F900000BFBDEC028B10BD44BD002010B52DED4F
:104FA000028B9FED2E0AB0EE408AFEF7D9FE90F8F4
:104FB000484001212A4880F8B810022180F8881161
:104FC00090F96A0110B1012844D11BE0244890ED0A
:104FD000321AF0EE410A90ED5B1AB0EE410AFCF78E
:104FE000ADF91F4880ED2F0A90ED630A0068D0EDFF
:104FF0000B0A30EE200A1A4880ED630A012180F87E
:105000006A1127E0164890ED2F0A0068D0ED0C0ACF
:1050100070EE200A5A2104FB01F000EE100AB8EEEF
:10502000C00A30EE808A0E4890ED320AF0EE400A57
:10503000B0EE480AFCF782F9094880ED2F0A90ED9E
:10504000630A0068D0ED0B0A30EE200A044880EDB8
:10505000630A00BF00BFBDEC028B10BD0000000062
:1050600044BD00202948407D2849887508460068CD
:10507000007810B90020487547E02448006800789F
:10508000092802D1214948753FE02048006800788E
:10509000012802D11D49487537E01C480068007896
:1050A000022802D1194948752FE018480068007895
:1050B000032802D11549487527E014480068007894
:1050C000042802D1114948751FE010480068007893
:1050D000052802D10D49487517E00C480068007892
:1050E000062802D1094948750FE008480068007891
:1050F000082803D107200549487506E003480068E1
:1051000000780A2801D101494875704744BD002044
:1051100010B52DED028B01212B4880F8B81080F8D6
:1051200088119FED2A0AB0EE408A9FED280AF0EE22
:10513000408A90ED2F0A0068D0ED0C0A30EE200A6C
:10514000B0EE408A204890ED630A0068D0ED0B0A6B
:1051500030EE200AF0EE408A1B4890ED320AF0EE65
:10516000400AB0EE480AFCF7E9F8174880ED2F0A2C
:1051700090ED660AF0EE400AB0EE680AFCF7DEF841
:10518000114880ED630A00BF90ED630AD0ED610A1B
:10519000B4EEE00AF1EE10FA04D890ED610A80ED69
:1051A000630A0DE0084890ED630AD0ED600AB4EEA2
:1051B000E00AF1EE10FA03DB90ED600A80ED630A7D
:1051C00000BFBDEC028B10BD44BD002000000000FC
:1051D000004870475E41002010B52748807D0128B7
:1051E00009D040F2E24125480BF026FC40F2E241B2
:1051F00023480BF021FC02211F4880F8B81080F8EA
:10520000881190ED310A80ED2F0A1D480BF0F4FB58
:10521000F7EE000A30EEC00A1748D0ED650A20EE1E
:10522000200A80ED630A90ED650AB0EEC00AF1EE47
:10523000000AB4EEE00AF1EE10FA1BD80F480BF0AA
:10524000DBFBF7EE000A30EEC00A0B48D0ED310A66
:1052500020EE200A80ED2F0A90ED310AB0EEC00A50
:10526000F1EE000AB4EEE00AF1EE10FA02D80420E2
:105270000149487510BD000044BD0020F80600201B
:105280000C0700207CB504460D460020009005491F
:1052900001902B462246886840F2FF2106F071FA01
:1052A0007CBD000044BD002010B52DED028B012017
:1052B0002E49087000BFFEF753FD90F848400121C9
:1052C0002B4880F8B810022180F8881190ED2F0A41
:1052D0000068D0ED020A70EE200A5A2014FB00F09C
:1052E00000EE100AB8EEC00A30EE800AB0EE408A36
:1052F0001F4890ED320AF0EE400AB0EE480AFCF783
:105300001DF81B4880ED2F0A90ED630A0068D0ED70
:10531000010A30EE200A164880ED630AFEF720FDF0
:10532000002180F8481000BF114890ED630AD0EDCD
:10533000610AB4EEE00AF1EE10FA04D890ED610AC9
:1053400080ED630A0DE00A4890ED630AD0ED600A33
:10535000B4EEE00AF1EE10FA03DB90ED600A80EDA6
:10536000630A00BFBDEC028B10BD000020070020C7
:1053700044BD002002212B4880F8B81080F8881125
:1053800090ED2F0A0068D0ED020A30EE200A254881
:1053900080ED2F0A90ED630A0068D0ED010A30EE2F
:1053A000200A204880ED630A00BF90ED2F0AD0ED5F
:1053B0002D0AB4EEE00AF1EE10FA04D890ED2D0AB1
:1053C00080ED2F0A0DE0174890ED2F0AD0ED2C0A42
:1053D000B4EEE00AF1EE10FA03DB90ED2C0A80ED5A
:1053E0002F0A00BF00BF0F4890ED630AD0ED610A9D
:1053F000B4EEE00AF1EE10FA04D890ED610A80ED07
:10540000630A0DE0074890ED630AD0ED600AB4EE40
:10541000E00AF1EE10FA03DB90ED600A80ED630A1A
:1054200000BF704744BD002010B542480068C07EF0
:1054300060BB404AB2F8A42011B23E4AD2F8A02084
:10544000128810B206F080F900EE100AB8EEC00A19
:105450003848D0ED2B0A20EE200A80ED310A0246B2
:10546000B2F8742111B20246D2F87021128810B23B
:1054700006F06AF900EE100AB8EEC00A2D48D0ED29
:105480005F0A20EE200A80ED650A30E029480068B6
:10549000C07E01282BD1274AB2F8A62011B2254A96
:1054A000D2F8A020128810B206F04EF900EE100AD1
:1054B000B8EEC00A1F48D0ED2B0A20EE200A80ED7E
:1054C000310A0246B2F8762111B20246D2F87021B2
:1054D000128810B206F038F900EE100AB8EEC00AD1
:1054E0001448D0ED5F0A20EE200A80ED650A1148CD
:1054F000406890ED140A0F4880ED320A406890ED44
:10550000120A0C4880ED660A406890ED020ADFED51
:105510000A0A20EE200A074880ED330A406890ED21
:10552000010ADFED050A20EE200A024880ED670A35
:1055300010BD000044BD0020E12E654200BFFFF712
:1055400073FFFFF78FFD08F003FF2C48407D0B2809
:1055500022D2DFE800F021090C0F1215181E2106D7
:105560001B00FFF7BBFC00BFFFF736FE15E0FFF79F
:10557000CFFD12E0FFF7FEFE0FE0FFF795FE0CE017
:10558000FFF70CFD09E000F0AFF806E000F06CFB5F
:1055900003E0FFF7B5FA00E000BF00BF1748A030F6
:1055A000FFF7E3F91648FFF7E0F91448407DA8B982
:1055B0001348A0380AF058FD11485C380AF054FD31
:1055C0000F4830300AF050FD0D4874300AF04CFDA1
:1055D00000210A48A0F86811A0F83812074AB2F969
:1055E0003812B2F96801FFF74DFE02200AF0F5FB10
:1055F00000200BF01BFB03490860A0E744BD00201E
:10560000B4BE0020F406002000B587B040F2E241AD
:1056100028480BF011FA40F2E24127480BF00CFA4F
:10562000DFED260AB7EE000A254804F0B9FDDFEDEC
:10563000230AB7EE000A234804F0B2FDDFED220A88
:10564000B7EE000A214804F0ABFD214B02221146BF
:105650002048FAF78DFE1E4B1033022211461D48DA
:105660000830FAF785FE1A4994391A4844380AF086
:1056700011FB194B022211461848FAF779FE164B16
:1056800010330222114615480830FAF771FE12490C
:105690009439124844380AF0FDFA1C221049684631
:1056A000FAF725FF002168460AF0B8FB0D490860AB
:1056B00007B000BDF80600200C07002000002042C3
:1056C00034D5002064D500200000FA4494D5002091
:1056D0001C06002008D60020D006002074D600202A
:1056E00034180108F006002010B59FED3A0A3A4838
:1056F00080ED050A0121394880F8B810022180F8B0
:10570000881108F0BBFE04463548FBF735FD3448E8
:105710000AF0CCFD3148006890ED010AD4ED000A92
:105720009FED301A60EE810A2B4890ED051A00EECD
:10573000C10A2A48D0ED630A30EE200A80ED630AE0
:1057400090ED2F1AD4ED011A31EE211AF0EE410A34
:1057500090ED2F1AB0EE410A214828300AF08CFB58
:105760001E480068D0ED020A30EE200A1B48D0ED3A
:105770002F0A30EE200A80ED2F0A00BF90ED630A59
:10578000D0ED610AB4EEE00AF1EE10FA04D890ED23
:10579000610A80ED630A0DE0104890ED630AD0EDD8
:1057A000600AB4EEE00AF1EE10FA03DB90ED600A55
:1057B00080ED630A00BF094890ED321AF0EE410A0D
:1057C00090ED2F1AB0EE410AFBF7B8FD034880EDCB
:1057D0002F0A10BD9A9999BE9CD6002044BD002086
:1057E00084BF00209A99193D02212B4880F8B810F7
:1057F00080F8881190ED2F0A0068D0ED0C0A30EE89
:10580000200A254880ED2F0A90ED630A0068D0ED4C
:105810000B0A30EE200A204880ED630A00BF90EDAD
:105820002F0AD0ED2D0AB4EEE00AF1EE10FA04D8FA
:1058300090ED2D0A80ED2F0A0DE0174890ED2F0A0C
:10584000D0ED2C0AB4EEE00AF1EE10FA03DB90ED95
:105850002C0A80ED2F0A00BF00BF0F4890ED630AAD
:10586000D0ED610AB4EEE00AF1EE10FA04D890ED42
:10587000610A80ED630A0DE0074890ED630AD0ED00
:10588000600AB4EEE00AF1EE10FA03DB90ED600A74
:1058900080ED630A00BF70479848002010B5424869
:1058A0000068C07E60BB404AB2F8A42011B23E4AF4
:1058B000D2F8A020128810B205F046FF00EE100AC0
:1058C000B8EEC00A3848D0ED2B0A20EE200A80ED51
:1058D000310A0246B2F8742111B20246D2F87021A0
:1058E000128810B205F030FF00EE100AB8EEC00AC0
:1058F0002D48D0ED5F0A20EE200A80ED650A30E0E9
:1059000029480068C07E01282BD1274AB2F8A6207A
:1059100011B2254AD2F8A020128810B205F014FF67
:1059200000EE100AB8EEC00A1F48D0ED2B0A20EE98
:10593000200A80ED310A0246B2F8762111B2024601
:10594000D2F87021128810B205F0FEFE00EE100AA7
:10595000B8EEC00A1448D0ED5F0A20EE200A80EDB0
:10596000650A1148406890ED140A0F4880ED320A2C
:10597000406890ED120A0C4880ED660A406890ED90
:10598000020ADFED0A0A20EE200A074880ED330AFA
:10599000406890ED010ADFED050A20EE200A02487A
:1059A00080ED670A10BD000098480020E12E654296
:1059B00070B52DED028B9FEDA30AA34880ED050A7B
:1059C00008F054FD044694F82000002872D001210C
:1059D0009E4880F8B810022180F888119C48FBF797
:1059E00029FB9B480AF088FB9848006890ED0B0A59
:1059F000D4ED000A974890ED001A70EE810A9FEDF1
:105A0000961A60EE810A904890ED051A00EEC10AE0
:105A10008E48D0ED630A30EE200A80ED630A90EDE7
:105A20002F1AD4ED011A31EE211AF0EE410A90ED51
:105A30002F1AB0EE410A864828300AF01DFA834832
:105A40000068D0ED0C0A30EE200A8048D0ED2F0A15
:105A500030EE200A80ED2F0A00BF90ED630AD0EDF2
:105A6000610AB4EEE00AF1EE10FA04D890ED610A92
:105A700080ED630A0DE0754890ED630AD0ED600A91
:105A8000B4EEE00AF1EE10FA03DB90ED600A80ED6F
:105A9000630A00BF6D4890ED321AF0EE410A90EDB6
:105AA0002F1AB0EE410AFBF749FC684880ED2F0A37
:105AB000C4E0FFE7FFF78CFB4078012843D10221C7
:105AC000624880F8B81080F88811FFF781FB05461E
:105AD000FEF746F990F848605C4890ED311AF0EE18
